{
  "contractName": "Faucet",
  "abi": [
    {
      "inputs": [],
      "name": "numOfFunders",
      "outputs": [
        {
          "internalType": "uint256",
          "name": "",
          "type": "uint256"
        }
      ],
      "stateMutability": "view",
      "type": "function",
      "constant": true
    },
    {
      "inputs": [],
      "name": "owner",
      "outputs": [
        {
          "internalType": "address",
          "name": "",
          "type": "address"
        }
      ],
      "stateMutability": "view",
      "type": "function",
      "constant": true
    },
    {
      "inputs": [],
      "name": "testNum",
      "outputs": [
        {
          "internalType": "uint256",
          "name": "",
          "type": "uint256"
        }
      ],
      "stateMutability": "view",
      "type": "function",
      "constant": true
    },
    {
      "stateMutability": "payable",
      "type": "receive",
      "payable": true
    },
    {
      "inputs": [],
      "name": "emitLog",
      "outputs": [
        {
          "internalType": "bytes32",
          "name": "",
          "type": "bytes32"
        }
      ],
      "stateMutability": "pure",
      "type": "function",
      "constant": true
    },
    {
      "inputs": [],
      "name": "addFunds",
      "outputs": [],
      "stateMutability": "payable",
      "type": "function",
      "payable": true
    },
    {
      "inputs": [],
      "name": "test1",
      "outputs": [],
      "stateMutability": "nonpayable",
      "type": "function"
    },
    {
      "inputs": [
        {
          "internalType": "uint256",
          "name": "withdrawAmount",
          "type": "uint256"
        }
      ],
      "name": "withdraw",
      "outputs": [],
      "stateMutability": "nonpayable",
      "type": "function"
    },
    {
      "inputs": [],
      "name": "getAllFunders",
      "outputs": [
        {
          "internalType": "address[]",
          "name": "",
          "type": "address[]"
        }
      ],
      "stateMutability": "view",
      "type": "function",
      "constant": true
    },
    {
      "inputs": [
        {
          "internalType": "uint8",
          "name": "index",
          "type": "uint8"
        }
      ],
      "name": "getFunderAtIndex",
      "outputs": [
        {
          "internalType": "address",
          "name": "",
          "type": "address"
        }
      ],
      "stateMutability": "view",
      "type": "function",
      "constant": true
    }
  ],
  "bytecode": "0x608060405234801561001057600080fd5b50336000806101000a81548173ffffffffffffffffffffffffffffffffffffffff021916908373ffffffffffffffffffffffffffffffffffffffff1602179055506103e8600181905550610a75806100696000396000f3fe60806040526004361061008a5760003560e01c80638da5cb5b116100595780638da5cb5b1461013e578063a26759cb14610169578063ae28f1ed14610173578063af7f2c9b1461019e578063f42c13bf146101c957610091565b80630a93cf33146100965780632e1a7d4d146100d35780636b59084d146100fc5780636fbbb55d1461011357610091565b3661009157005b600080fd5b3480156100a257600080fd5b506100bd60048036038101906100b8919061060b565b6101f4565b6040516100ca9190610679565b60405180910390f35b3480156100df57600080fd5b506100fa60048036038101906100f591906106ca565b610234565b005b34801561010857600080fd5b506101116102cb565b005b34801561011f57600080fd5b5061012861035b565b60405161013591906107b5565b60405180910390f35b34801561014a57600080fd5b50610153610455565b6040516101609190610679565b60405180910390f35b610171610479565b005b34801561017f57600080fd5b50610188610599565b60405161019591906107e6565b60405180910390f35b3480156101aa57600080fd5b506101b361059f565b6040516101c091906107e6565b60405180910390f35b3480156101d557600080fd5b506101de6105a5565b6040516101eb919061081a565b60405180910390f35b6000600460008360ff16815260200190815260200160002060009054906101000a900473ffffffffffffffffffffffffffffffffffffffff169050919050565b8067016345785d8a0000811115610280576040517f08c379a0000000000000000000000000000000000000000000000000000000008152600401610277906108b8565b60405180910390fd5b3373ffffffffffffffffffffffffffffffffffffffff166108fc839081150290604051600060405180830381858888f193505050501580156102c6573d6000803e3d6000fd5b505050565b60008054906101000a900473ffffffffffffffffffffffffffffffffffffffff1673ffffffffffffffffffffffffffffffffffffffff163373ffffffffffffffffffffffffffffffffffffffff1614610359576040517f08c379a00000000000000000000000000000000000000000000000000000000081526004016103509061094a565b60405180910390fd5b565b6060600060025467ffffffffffffffff81111561037b5761037a61096a565b5b6040519080825280602002602001820160405280156103a95781602001602082028036833780820191505090505b50905060005b60025481101561044d576004600082815260200190815260200160002060009054906101000a900473ffffffffffffffffffffffffffffffffffffffff16828281518110610400576103ff610999565b5b602002602001019073ffffffffffffffffffffffffffffffffffffffff16908173ffffffffffffffffffffffffffffffffffffffff16815250508080610445906109f7565b9150506103af565b508091505090565b60008054906101000a900473ffffffffffffffffffffffffffffffffffffffff1681565b6000339050600360008273ffffffffffffffffffffffffffffffffffffffff1673ffffffffffffffffffffffffffffffffffffffff16815260200190815260200160002060009054906101000a900460ff16610596576000600260008154809291906104e4906109f7565b9190505590506001600360008473ffffffffffffffffffffffffffffffffffffffff1673ffffffffffffffffffffffffffffffffffffffff16815260200190815260200160002060006101000a81548160ff021916908315150217905550816004600083815260200190815260200160002060006101000a81548173ffffffffffffffffffffffffffffffffffffffff021916908373ffffffffffffffffffffffffffffffffffffffff160217905550505b50565b60015481565b60025481565b60007f48656c6c6f20576f726c64000000000000000000000000000000000000000000905090565b600080fd5b600060ff82169050919050565b6105e8816105d2565b81146105f357600080fd5b50565b600081359050610605816105df565b92915050565b600060208284031215610621576106206105cd565b5b600061062f848285016105f6565b91505092915050565b600073ffffffffffffffffffffffffffffffffffffffff82169050919050565b600061066382610638565b9050919050565b61067381610658565b82525050565b600060208201905061068e600083018461066a565b92915050565b6000819050919050565b6106a781610694565b81146106b257600080fd5b50565b6000813590506106c48161069e565b92915050565b6000602082840312156106e0576106df6105cd565b5b60006106ee848285016106b5565b91505092915050565b600081519050919050565b600082825260208201905092915050565b6000819050602082019050919050565b61072c81610658565b82525050565b600061073e8383610723565b60208301905092915050565b6000602082019050919050565b6000610762826106f7565b61076c8185610702565b935061077783610713565b8060005b838110156107a857815161078f8882610732565b975061079a8361074a565b92505060018101905061077b565b5085935050505092915050565b600060208201905081810360008301526107cf8184610757565b905092915050565b6107e081610694565b82525050565b60006020820190506107fb60008301846107d7565b92915050565b6000819050919050565b61081481610801565b82525050565b600060208201905061082f600083018461080b565b92915050565b600082825260208201905092915050565b7f43616e6e6f74207769746864726177206d6f7265207468616e20302e3120657460008201527f6865720000000000000000000000000000000000000000000000000000000000602082015250565b60006108a2602383610835565b91506108ad82610846565b604082019050919050565b600060208201905081810360008301526108d181610895565b9050919050565b7f6f6e6c79206f776e65722063616e2063616c6c20746869732066756e6374696f60008201527f6e00000000000000000000000000000000000000000000000000000000000000602082015250565b6000610934602183610835565b915061093f826108d8565b604082019050919050565b6000602082019050818103600083015261096381610927565b9050919050565b7f4e487b7100000000000000000000000000000000000000000000000000000000600052604160045260246000fd5b7f4e487b7100000000000000000000000000000000000000000000000000000000600052603260045260246000fd5b7f4e487b7100000000000000000000000000000000000000000000000000000000600052601160045260246000fd5b6000610a0282610694565b91507fffffffffffffffffffffffffffffffffffffffffffffffffffffffffffffffff8203610a3457610a336109c8565b5b60018201905091905056fea26469706673582212206379fe9aec7d2df944c9483297501891a6a721af2162e94dfd745719a7f9b29164736f6c634300080d0033",
  "immutableReferences": {},
  "source": "// SPDX-License-Identifier: MIT\r\npragma solidity >=0.4.22 <0.9.0;\r\n\r\nimport \"./Owned.sol\";\r\nimport \"./Logger.sol\";\r\nimport \"./IFaucet.sol\";\r\n\r\ncontract Faucet is Owned, Logger, IFaucet {\r\n\r\n    uint public numOfFunders;\r\n    mapping(address => bool) private funders;\r\n    mapping(uint => address) private lutFunders;\r\n\r\n    modifier limitWithdraw (uint withdrawAmount) {\r\n        require(\r\n            withdrawAmount <= 100000000000000000, \r\n            \"Cannot withdraw more than 0.1 ether\"\r\n        );\r\n        _;\r\n    }\r\n\r\n    receive() external payable {}\r\n\r\n    function emitLog() public override pure returns(bytes32){\r\n        return \"Hello World\";\r\n    }\r\n\r\n    function addFunds() override external payable {\r\n        address funder =  msg.sender;\r\n        \r\n        if (!funders[funder]){\r\n            uint index = numOfFunders++;\r\n            funders[funder] = true;\r\n            lutFunders[index] = funder;\r\n        }\r\n    }\r\n\r\n    function test1() external onlyOwner {\r\n\r\n    }\r\n\r\n    function withdraw(uint withdrawAmount) override external limitWithdraw(withdrawAmount) {\r\n        payable(msg.sender).transfer(withdrawAmount);\r\n    }\r\n\r\n    function getAllFunders() external view returns ( address[] memory) {\r\n        address[] memory _funders = new address[](numOfFunders);\r\n\r\n        for (uint i =0; i < numOfFunders; i++){\r\n            _funders[i] = lutFunders[i];\r\n        }\r\n        \r\n        return _funders;\r\n    }\r\n\r\n    function getFunderAtIndex(uint8 index) external view returns(address){\r\n        return lutFunders[index];\r\n    }\r\n\r\n}\r\n\r\n//const instance = await Faucet.deployed();\r\n// instance.addFunds({from : accounts[0], value:\"2000000000000000000\"})\r\n",
  "sourcePath": "D:\\zaheer Data\\blockchainprojects\\marketPlace\\faucet\\contracts\\FaucetContract.sol",
  "compiler": {
    "name": "solc",
    "version": "0.8.13+commit.abaa5c0e.Emscripten.clang"
  },
  "schemaVersion": "3.4.7",
  "updatedAt": "2022-07-19T08:14:48.533Z",
  "networkType": "ethereum",
  "devdoc": {
    "kind": "dev",
    "methods": {},
    "version": 1
  },
  "userdoc": {
    "kind": "user",
    "methods": {},
    "version": 1
  }
}